:020000040800F2
:1000000000000220250B0008910A0008990A000848
:10001000A10A0008A90A0008B10A000800000000AF
:10002000000000000000000000000000B90A000805
:10003000C70A000800000000D50A0008E30A00080B
:10004000790B0008790B0008790B0008790B000880
:10005000790B0008790B0008790B0008790B000870
:10006000790B0008790B0008790B0008790B000860
:10007000790B0008790B0008790B0008790B000850
:10008000790B0008790B0008790B0008790B000840
:10009000790B0008790B0008790B0008790B000830
:1000A000790B0008790B0008790B0008790B000820
:1000B000790B0008790B0008790B0008790B000810
:1000C000790B0008790B0008790B0008790B000800
:1000D000790B0008790B0008790B0008790B0008F0
:1000E000790B0008790B000800000000790B00086C
:1000F000790B0008790B0008790B0008790B0008D0
:10010000790B0008790B0008790B0008790B0008BF
:10011000790B0008790B0008790B0008790B0008AF
:10012000790B0008790B0008790B0008790B00089F
:10013000790B0008790B0008790B0008790B00088F
:1001400000000000000000000000000000000000AF
:10015000790B0008790B0008790B0008790B00086F
:10016000790B0008790B0008790B0008790B00085F
:10017000790B0008790B0008790B000800000000DB
:10018000790B0008790B0008790B0008790B00083F
:10019000790B0008790B0008790B0008790B00082F
:1001A000790B0008790B0008790B0008790B00081F
:1001B000790B0008790B0008790B0008790B00080F
:1001C000790B0008790B0008790B0008790B0008FF
:1001D000790B0008790B0008790B0008790B0008EF
:1001E000790B0008790B0008790B0008790B0008DF
:1001F000790B0008790B0008790B0008790B0008CF
:10020000790B0008790B0008790B0008790B0008BE
:10021000790B0008790B0008790B0008790B0008AE
:10022000790B0008790B0008790B0008000000002A
:10023000790B0008790B000800000000790B00081A
:10024000790B0008790B0008790B0008790B00087E
:10025000790B0008790B0008790B0008790B00086E
:10026000790B0008790B0008790B0008790B00085E
:10027000790B0008790B0008790B000800000000DA
:10028000790B0008790B0008790B000800000000CA
:0802900000000000790B0008DA
:1002980010B5054C237833B9044B13B10448AFF3B8
:1002A80000800123237010BD100000200000000012
:1002B800C40B000808B5034B1BB103490348AFF34F
:1002C800008008BD0000000014000020C40B0008D6
:1002D80080B483B000AF3E4BDB683D4A43F0020375
:1002E800D36000BF3A4B5B6803F40053002BF9D08E
:1002F800374B4FF440429A6100BF354B9B6903F47A
:100308000053002BF9D0334BD3F88830314A43F4EB
:100318007003C2F88830304B01221A602E4B00223D
:100328001A612D4B1B682C4A43F0800313602A4B3B
:100338001B68294A43F001031360274B1B68264AB0
:1003480043F480331360244B1B68234A43F48053DF
:100358001360214B00229A611F4B0022DA611E4B69
:1003680000221A621C4B00229A621B4B0022DA629E
:10037800194B00221A63184B00225A63164B0022AD
:100388009A63154B0022DA63134B00221A64124B4E
:1003980000225A64104B1B680F4A23F48023136011
:1003A8000D4B00221A660D4B01221A6000237B6058
:1003B80003E000BF7B6801337B607B68084A934297
:1003C800F7D300BF00BF0C37BD465DF8047B70470C
:1003D8000048025800ED00E000440258088100512E
:1003E800005A62027047000080B485B000AF7860A0
:1003F8007B6803F00703FB600B4BDB68BB60BA68E4
:100408004FF6FF031340BB60FB681A02BB681A4330
:10041800064B1343BB60044ABB68D36000BF143764
:10042800BD465DF8047B704700ED00E00000FA056A
:1004380080B400AF044BDB681B0A03F007031846BF
:10044800BD465DF8047B704700ED00E080B483B0E2
:1004580000AF03463960FB80B7F90630002B0ADB92
:100468003B68DAB20C49B7F906301201D2B20B4434
:1004780083F800230AE03B68DAB20849FB8803F0F6
:100488000F03043B1201D2B20B441A7600BF0C379B
:10049800BD465DF8047B704700E100E000ED00E038
:1004A80080B489B000AFF860B9607A60FB6803F087
:1004B8000703FB61FB69C3F10703042B28BF04236F
:1004C800BB61FB690433062B02D9FB69033B00E0DF
:1004D80000237B614FF0FF32BB6902FA03F3DA4372
:1004E800BB681A407B699A404FF0FF317B6901FA7B
:1004F80003F3D9437B680B40134318462437BD46A2
:100508005DF8047B7047000080B582B000AF78606A
:100518007B68013BB3F1807F01D301230FE00A4AD6
:100528007B68013B53600F214FF0FF30FFF78EFFD0
:10053800054B00229A60044B07221A6000231846D4
:100548000837BD4680BD00BF10E000E080B582B02E
:1005580000AF78607868FFF747FF00BF0837BD46EF
:1005680080BD80B586B000AF0346B9607A60FB8174
:10057800FFF75EFF78617A68B9687869FFF790FFDE
:100588000246B7F90E3011461846FFF75FFF00BF65
:100598001837BD4680BD80B582B000AF78607868F6
:1005A800FFF7B2FF034618460837BD4680BD000076
:1005B80080B489B000AFB34B1B6903F03803182B24
:1005C80000F2558101A252F823F000BF3906000855
:1005D80077080008770800087708000877080008F7
:1005E8007708000877080008770800085F06000801
:1005F80077080008770800087708000877080008D7
:1006080077080008770800087708000865060008DA
:1006180077080008770800087708000877080008B6
:100628007708000877080008770800086B060008B4
:10063800944B1B6803F02003002B09D0914B1B68D7
:10064800DB0803F00303904A22FA03F3BB6111E1CC
:100658008D4BBB610EE18D4BBB610BE18C4BBB61DC
:1006680008E1884B9B6A03F003037B61854B9B6A17
:100678001B0903F03F033B61824BDB6A03F0010374
:10068800FB60804B5B6BDB08C3F30C03FA6802FB6F
:1006980003F307EE903AF8EE677AC7ED027A3B6902
:1006A800002B00F0E1807B69022B00F083807B69DE
:1006B800022B00F2A1807B69002B03D07B69012B00
:1006C80056D099E06F4B1B6803F02003002B2DD008
:1006D8006C4B1B68DB0803F003036B4A22FA03F335
:1006E8007B607B6807EE903AF8EE676A3B6907EE35
:1006F800903AF8EE677A86EEA77A624B1B6BC3F3E3
:10070800080307EE903AF8EE676A97ED026ADFEDA4
:10071800615AC6EE257A76EEA77AF7EE006A77EE8A
:10072800A67A67EE277AC7ED077A87E03B6907EE76
:10073800903AF8EE677ADFED586A86EEA77A514B61
:100748001B6BC3F3080307EE903AF8EE676A97ED60
:10075800026ADFED505AC6EE257A76EEA77AF7EEF2
:10076800006A77EEA67A67EE277AC7ED077A65E022
:100778003B6907EE903AF8EE677ADFED486A86EE55
:10078800A77A404B1B6BC3F3080307EE903AF8EEC9
:10079800676A97ED026ADFED3F5AC6EE257A76EE74
:1007A800A77AF7EE006A77EEA67A67EE277AC7EDA2
:1007B800077A43E03B6907EE903AF8EE677ADFED97
:1007C800386A86EEA77A2F4B1B6BC3F3080307EE34
:1007D800903AF8EE676A97ED026ADFED2E5AC6EE98
:1007E800257A76EEA77AF7EE006A77EEA67A67EEB4
:1007F800277AC7ED077A21E03B6907EE903AF8EED1
:10080800677ADFED266A86EEA77A1E4B1B6BC3F369
:10081800080307EE903AF8EE676A97ED026ADFED93
:100828001D5AC6EE257A76EEA77AF7EE006A77EEBD
:10083800A67A67EE277AC7ED077A00BF114B1B6BC4
:100848005B0A03F07F0301333B603B6807EE903A95
:10085800B8EE677AD7ED076AC6EE877AFCEEE77AD4
:1008680017EE903ABB6105E00023BB6102E0074B3D
:10087800BB6100BFBB6918462437BD465DF8047BE1
:10088800704700BF004402580090D00300093D00A3
:1008980040787D01000000460024744C0024744A0E
:1008A80020BCBE4B80B582B000AF0320FFF74EFEE0
:1008B800FFF77EFE0246154B9B691B0A03F00F03E8
:1008C8001349CB5C03F01F0322FA03F37B600F4B41
:1008D8009B6903F00F030E4AD35C03F01F037A6889
:1008E80022FA03F30B4A13600B4A7B6813600F204C
:1008F80000F014F80346002B01D0012302E000F0B9
:10090800F3F8002318460837BD4680BD0044025856
:10091800DC0B0008040000200000002080B582B035
:1009280000AF7860154B1B78002B01D1012321E023
:10093800134B1A68114B1B7819464FF47A73B3FBA3
:10094800F1F3B2FBF3F31846FFF725FE0346002B3D
:1009580001D001230EE07B680F2B0AD800227968AA
:100968004FF0FF30FFF7FDFD064A7B681360002358
:1009780000E0012318460837BD4680BD0C00002062
:10098800000000200800002080B400AF064B1B7850
:100998001A46064B1B681344044A136000BFBD4641
:1009A8005DF8047B704700BF0C0000202C0000207D
:1009B80080B584B000AF00F04FF8FFF773FF234B0A
:1009C800D3F8E030214A43F00103C2F8E0301F4B6E
:1009D800D3F8E03003F00103FB60FB681C4B1B6895
:1009E80023F003031A4A43F001031360184B5B68B2
:1009F800174A23F001035360154B9B6823F0030348
:100A0800134A43F001039360114BDB68104A23F04B
:100A18000303D3600E4B01229A610023BB6002E0FE
:100A2800BB680133BB60BB680A4A9342F8D3084BE2
:100A38004FF480329A6100237B6002E07B680133C7
:100A48007B607B68034A9342F8D3E3E7004402588B
:100A58000000025800127A0080B483B000AF00236F
:100A68007B6003E000BF7B6801337B607B68054ADD
:100A78009342F7D900BF00BF0C37BD465DF8047B31
:100A8800704700BF3F4B4C0080B400AF00BFFDE78C
:100A980080B400AF00BFFDE780B400AF00BFFDE742
:100AA80080B400AF00BFFDE780B400AF00BFFDE732
:100AB80080B400AF00BFBD465DF8047B704780B4CA
:100AC80000AF00BFBD465DF8047B704780B400AF3F
:100AD80000BFBD465DF8047B704780B500AFFFF7E7
:100AE80053FF00BF80BD000080B483B000AF0A4B45
:100AF800D3F8F430084A43F00203C2F8F430064B46
:100B0800D3F8F43003F002037B607B6800BF0C3736
:100B1800BD465DF8047B704700440258DFF838D0C2
:100B2800FFF760FCFFF7D4FB0C480D490D4A002382
:100B380002E0D458C4500433C4188C42F9D30A4A8A
:100B48000A4C002301E013600432A242FBD300F0F8
:100B580011F8FFF72DFFFEE700000220000000203B
:100B680010000020F40B00081000002030000020C6
:100B7800FEE7000070B50D4B0D4D5B1B9C10002669
:100B8800A64209D100F01AF80A4D0B4B5B1B9C10CA
:100B98000026A64205D170BD55F8043B984701369A
:100BA800EEE755F8043B98470136F2E7EC0B0008EE
:100BB800EC0B0008EC0B0008F00B0008F8B500BFC0
:100BC800F8BC08BC9E467047F8B500BFF8BC08BC26
:040BD8009E4670477E
:100BDC0000000000010203040102030406070809D7
:040BEC00BD0200083E
:040BF000990200085E
:100BF4000090D0030090D00310000000010000001A
:0400000508000B25BF
:00000001FF
